{
  "contractName": "ERC20Token",
  "abi": [
    {
      "constant": true,
      "inputs": [],
      "name": "name",
      "outputs": [
        {
          "name": "",
          "type": "string"
        }
      ],
      "payable": false,
      "stateMutability": "view",
      "type": "function"
    },
    {
      "constant": true,
      "inputs": [],
      "name": "totalSupply",
      "outputs": [
        {
          "name": "",
          "type": "uint256"
        }
      ],
      "payable": false,
      "stateMutability": "view",
      "type": "function"
    },
    {
      "constant": true,
      "inputs": [],
      "name": "decimals",
      "outputs": [
        {
          "name": "",
          "type": "uint8"
        }
      ],
      "payable": false,
      "stateMutability": "view",
      "type": "function"
    },
    {
      "constant": true,
      "inputs": [],
      "name": "symbol",
      "outputs": [
        {
          "name": "",
          "type": "string"
        }
      ],
      "payable": false,
      "stateMutability": "view",
      "type": "function"
    },
    {
      "constant": true,
      "inputs": [],
      "name": "maxSupply",
      "outputs": [
        {
          "name": "",
          "type": "uint256"
        }
      ],
      "payable": false,
      "stateMutability": "view",
      "type": "function"
    },
    {
      "inputs": [
        {
          "name": "_name",
          "type": "string"
        },
        {
          "name": "_symbol",
          "type": "string"
        },
        {
          "name": "_decimals",
          "type": "uint8"
        },
        {
          "name": "_initialSupply",
          "type": "uint256"
        },
        {
          "name": "_maxSupply",
          "type": "uint256"
        }
      ],
      "payable": false,
      "stateMutability": "nonpayable",
      "type": "constructor"
    },
    {
      "anonymous": false,
      "inputs": [
        {
          "indexed": false,
          "name": "from",
          "type": "address"
        },
        {
          "indexed": false,
          "name": "to",
          "type": "address"
        },
        {
          "indexed": false,
          "name": "value",
          "type": "uint256"
        }
      ],
      "name": "Transfer",
      "type": "event"
    },
    {
      "anonymous": false,
      "inputs": [
        {
          "indexed": false,
          "name": "from",
          "type": "address"
        },
        {
          "indexed": false,
          "name": "to",
          "type": "address"
        },
        {
          "indexed": false,
          "name": "value",
          "type": "uint256"
        }
      ],
      "name": "Approval",
      "type": "event"
    },
    {
      "anonymous": false,
      "inputs": [
        {
          "indexed": false,
          "name": "spender",
          "type": "address"
        },
        {
          "indexed": false,
          "name": "value",
          "type": "uint256"
        },
        {
          "indexed": false,
          "name": "extraData",
          "type": "bytes"
        }
      ],
      "name": "ApproveAndCall",
      "type": "event"
    },
    {
      "constant": true,
      "inputs": [
        {
          "name": "_owner",
          "type": "address"
        }
      ],
      "name": "balanceOf",
      "outputs": [
        {
          "name": "balance",
          "type": "uint256"
        }
      ],
      "payable": false,
      "stateMutability": "view",
      "type": "function"
    },
    {
      "constant": true,
      "inputs": [
        {
          "name": "_owner",
          "type": "address"
        },
        {
          "name": "_spender",
          "type": "address"
        }
      ],
      "name": "allowance",
      "outputs": [
        {
          "name": "remaining",
          "type": "uint256"
        }
      ],
      "payable": false,
      "stateMutability": "view",
      "type": "function"
    },
    {
      "constant": false,
      "inputs": [
        {
          "name": "_to",
          "type": "address"
        },
        {
          "name": "_value",
          "type": "uint256"
        }
      ],
      "name": "transfer",
      "outputs": [
        {
          "name": "success",
          "type": "bool"
        }
      ],
      "payable": false,
      "stateMutability": "nonpayable",
      "type": "function"
    },
    {
      "constant": false,
      "inputs": [
        {
          "name": "_from",
          "type": "address"
        },
        {
          "name": "_to",
          "type": "address"
        },
        {
          "name": "_value",
          "type": "uint256"
        }
      ],
      "name": "transferFrom",
      "outputs": [
        {
          "name": "success",
          "type": "bool"
        }
      ],
      "payable": false,
      "stateMutability": "nonpayable",
      "type": "function"
    },
    {
      "constant": false,
      "inputs": [
        {
          "name": "_spender",
          "type": "address"
        },
        {
          "name": "_value",
          "type": "uint256"
        }
      ],
      "name": "approve",
      "outputs": [
        {
          "name": "success",
          "type": "bool"
        }
      ],
      "payable": false,
      "stateMutability": "nonpayable",
      "type": "function"
    },
    {
      "constant": false,
      "inputs": [
        {
          "name": "_spender",
          "type": "address"
        },
        {
          "name": "_addedValue",
          "type": "uint256"
        }
      ],
      "name": "increaseAllowance",
      "outputs": [
        {
          "name": "",
          "type": "bool"
        }
      ],
      "payable": false,
      "stateMutability": "nonpayable",
      "type": "function"
    },
    {
      "constant": false,
      "inputs": [
        {
          "name": "_spender",
          "type": "address"
        },
        {
          "name": "_subtractedValue",
          "type": "uint256"
        }
      ],
      "name": "decreaseAllowance",
      "outputs": [
        {
          "name": "",
          "type": "bool"
        }
      ],
      "payable": false,
      "stateMutability": "nonpayable",
      "type": "function"
    },
    {
      "constant": false,
      "inputs": [
        {
          "name": "_spender",
          "type": "address"
        },
        {
          "name": "_value",
          "type": "uint256"
        },
        {
          "name": "_extraData",
          "type": "bytes"
        }
      ],
      "name": "approveAndCall",
      "outputs": [
        {
          "name": "success",
          "type": "bool"
        }
      ],
      "payable": false,
      "stateMutability": "nonpayable",
      "type": "function"
    }
  ],
  "bytecode": "0x608060405234801561001057600080fd5b50604051610a9b380380610a9b83398101604090815281516020830151918301516060840151608085015192850194939093019290918181101561005357600080fd5b84516100669060009060208801906100b0565b50835161007a9060019060208701906100b0565b506004805460ff191660ff94909416939093179092553360009081526005602052604090208190556002556003555061014b9050565b828054600181600116156101000203166002900490600052602060002090601f016020900481019282601f106100f157805160ff191683800117855561011e565b8280016001018555821561011e579182015b8281111561011e578251825591602001919060010190610103565b5061012a92915061012e565b5090565b61014891905b8082111561012a5760008155600101610134565b90565b6109418061015a6000396000f3006080604052600436106100c45763ffffffff7c010000000000000000000000000000000000000000000000000000000060003504166306fdde0381146100c9578063095ea7b31461015357806318160ddd1461018b57806323b872dd146101b2578063313ce567146101dc578063395093511461020757806370a082311461022b57806395d89b411461024c578063a457c2d714610261578063a9059cbb14610285578063cae9ca51146102a9578063d5abeb0114610312578063dd62ed3e14610327575b600080fd5b3480156100d557600080fd5b506100de61034e565b6040805160208082528351818301528351919283929083019185019080838360005b83811015610118578181015183820152602001610100565b50505050905090810190601f1680156101455780820380516001836020036101000a031916815260200191505b509250505060405180910390f35b34801561015f57600080fd5b50610177600160a060020a03600435166024356103dc565b604080519115158252519081900360200190f35b34801561019757600080fd5b506101a06103f2565b60408051918252519081900360200190f35b3480156101be57600080fd5b50610177600160a060020a03600435811690602435166044356103f8565b3480156101e857600080fd5b506101f161044f565b6040805160ff9092168252519081900360200190f35b34801561021357600080fd5b50610177600160a060020a0360043516602435610458565b34801561023757600080fd5b506101a0600160a060020a0360043516610494565b34801561025857600080fd5b506100de6104af565b34801561026d57600080fd5b50610177600160a060020a0360043516602435610509565b34801561029157600080fd5b50610177600160a060020a0360043516602435610545565b3480156102b557600080fd5b50604080516020600460443581810135601f8101849004840285018401909552848452610177948235600160a060020a03169460248035953695946064949201919081908401838280828437509497506105529650505050505050565b34801561031e57600080fd5b506101a0610746565b34801561033357600080fd5b506101a0600160a060020a036004358116906024351661074c565b6000805460408051602060026001851615610100026000190190941693909304601f810184900484028201840190925281815292918301828280156103d45780601f106103a9576101008083540402835291602001916103d4565b820191906000526020600020905b8154815290600101906020018083116103b757829003601f168201915b505050505081565b60006103e9338484610777565b50600192915050565b60025481565b600061040584848461080f565b600160a060020a038416600090815260066020908152604080832033808552925290912054610445918691610440908663ffffffff6108e516565b610777565b5060019392505050565b60045460ff1681565b336000818152600660209081526040808320600160a060020a038716845290915281205490916103e9918590610440908663ffffffff6108fc16565b600160a060020a031660009081526005602052604090205490565b60018054604080516020600284861615610100026000190190941693909304601f810184900484028201840190925281815292918301828280156103d45780601f106103a9576101008083540402835291602001916103d4565b336000818152600660209081526040808320600160a060020a038716845290915281205490916103e9918590610440908663ffffffff6108e516565b60006103e933848461080f565b600080600160a060020a038516151561056a57600080fd5b508361057681856103dc565b15610739576040517f8f4ffcb10000000000000000000000000000000000000000000000000000000081523360048201818152602483018790523060448401819052608060648501908152875160848601528751600160a060020a03871695638f4ffcb195948b94938b939192909160a490910190602085019080838360005b8381101561060e5781810151838201526020016105f6565b50505050905090810190601f16801561063b5780820380516001836020036101000a031916815260200191505b5095505050505050600060405180830381600087803b15801561065d57600080fd5b505af1158015610671573d6000803e3d6000fd5b505050507f4df88a0bc463d1105f5b5e7b0a2e83433ef2058a59573056c6d85ad20f69fc2b8585856040518084600160a060020a0316600160a060020a0316815260200183815260200180602001828103825283818151815260200191508051906020019080838360005b838110156106f45781810151838201526020016106dc565b50505050905090810190601f1680156107215780820380516001836020036101000a031916815260200191505b5094505050505060405180910390a16001915061073e565b600091505b509392505050565b60035481565b600160a060020a03918216600090815260066020908152604080832093909416825291909152205490565b600160a060020a038216151561078c57600080fd5b600160a060020a03831615156107a157600080fd5b600160a060020a03808416600081815260066020908152604080832094871680845294825291829020859055815192835282019290925280820183905290517f8c5be1e5ebec7d5bd14f71427d1e84f3dd0314c0f7b2291e5b200ac8c7c3b9259181900360600190a1505050565b600160a060020a038216151561082457600080fd5b600160a060020a03831660009081526005602052604090205461084d908263ffffffff6108e516565b600160a060020a038085166000908152600560205260408082209390935590841681522054610882908263ffffffff6108fc16565b600160a060020a0380841660008181526005602090815260409182902094909455805192871683529282015280820183905290517fddf252ad1be2c89b69c2b068fc378daa952ba7f163c4a11628f55a4df523b3ef9181900360600190a1505050565b600080838311156108f557600080fd5b5050900390565b60008282018381101561090e57600080fd5b93925050505600a165627a7a72305820f10f7fa2461c21cd0f392211dcebc2e4492594f2627d35aeaf2d8a787ccc2bd80029",
  "source": "pragma solidity ^0.4.24;\n\nimport \"./SafeMath.sol\";\nimport \"./TokenRecipient.sol\";\n\ncontract ERC20Token {\n  using SafeMath for uint;\n\n  string public name;\n  string public symbol;\n  uint256 public totalSupply;\n  uint256 public maxSupply;\n  uint8 public decimals;\n\n  mapping(address => uint256) _balances;\n\n  mapping (address => mapping (address => uint256)) private _allowed;\n\n  event Transfer(address from, address to, uint value);\n  event Approval(address from, address to, uint value);\n  event ApproveAndCall(address spender, uint value, bytes extraData);\n\n  constructor(string _name, string _symbol, uint8 _decimals, uint256 _initialSupply, uint256 _maxSupply) public {\n    require(_maxSupply >= _initialSupply);\n\n    name = _name;\n    symbol = _symbol;\n    decimals = _decimals;\n\n    _balances[msg.sender] = _initialSupply;\n    totalSupply = _initialSupply;\n    maxSupply = _maxSupply;\n  }\n\n  function balanceOf(address _owner) public view returns (uint balance) {\n    return _balances[_owner];\n  }\n\n  function allowance(address _owner, address _spender) public view returns (uint256 remaining) {\n    return _allowed[_owner][_spender];\n  }\n\n  /**\n     * @dev Transfer token to a specified address.\n     * @param _to The address to transfer to.\n     * @param _value The amount to be transferred.\n     */\n  function transfer(address _to, uint256 _value) public returns (bool success) {\n    _transfer(msg.sender, _to, _value);\n    return true;\n  }\n\n  /**\n     * @dev Transfer tokens from one address to another.\n     * Note that while this function emits an Approval event, this is not required as per the specification,\n     * and other compliant implementations may not emit the event.\n     * @param _from address The address which you want to send tokens from\n     * @param _to address The address which you want to transfer to\n     * @param _value uint256 the amount of tokens to be transferred\n     */\n  function transferFrom(address _from, address _to, uint256 _value) public returns (bool success) {\n    _transfer(_from, _to, _value);\n    _approve(_from, msg.sender, _allowed[_from][msg.sender].sub(_value));\n    return true;\n  }\n\n  /**\n     * @dev Approve the passed address to spend the specified amount of tokens on behalf of msg.sender.\n     * Beware that changing an allowance with this method brings the risk that someone may use both the old\n     * and the new allowance by unfortunate transaction ordering. One possible solution to mitigate this\n     * race condition is to first reduce the spender's allowance to 0 and set the desired value afterwards:\n     * https://github.com/ethereum/EIPs/issues/20#issuecomment-263524729\n     * @param _spender The address which will spend the funds.\n     * @param _value The amount of tokens to be spent.\n     */\n  function approve(address _spender, uint256 _value) public returns (bool success) {\n    _approve(msg.sender, _spender, _value);\n    return true;\n  }\n\n  /**\n     * @dev Increase the amount of tokens that an owner allowed to a spender.\n     * approve should be called when _allowed[msg.sender][spender] == 0. To increment\n     * allowed value is better to use this function to avoid 2 calls (and wait until\n     * the first transaction is mined)\n     * From MonolithDAO Token.sol\n     * Emits an Approval event.\n     * @param _spender The address which will spend the funds.\n     * @param _addedValue The amount of tokens to increase the allowance by.\n     */\n  function increaseAllowance(address _spender, uint256 _addedValue) public returns (bool) {\n    _approve(msg.sender, _spender, _allowed[msg.sender][_spender].add(_addedValue));\n    return true;\n  }\n\n  /**\n   * @dev Decrease the amount of tokens that an owner allowed to a spender.\n   * approve should be called when _allowed[msg.sender][spender] == 0. To decrement\n   * allowed value is better to use this function to avoid 2 calls (and wait until\n   * the first transaction is mined)\n   * From MonolithDAO Token.sol\n   * Emits an Approval event.\n   * @param _spender The address which will spend the funds.\n   * @param _subtractedValue The amount of tokens to decrease the allowance by.\n   */\n  function decreaseAllowance(address _spender, uint256 _subtractedValue) public returns (bool) {\n    _approve(msg.sender, _spender, _allowed[msg.sender][_spender].sub(_subtractedValue));\n    return true;\n  }\n\n  function approveAndCall(address _spender, uint256 _value, bytes _extraData)  public returns (bool success) {\n    require(_spender != address(0));\n\n    TokenRecipient spender = TokenRecipient(_spender);\n    if (approve(_spender, _value)) {\n      spender.receiveApproval(msg.sender, _value, this, _extraData);\n      emit ApproveAndCall(_spender, _value, _extraData );\n      return true;\n    }\n\n    return false;\n  }\n\n  /**\n     * @dev Approve an address to spend another addresses' tokens.\n     * @param owner The address that owns the tokens.\n     * @param spender The address that will spend the tokens.\n     * @param value The number of tokens that can be spent.\n     */\n  function _approve(address owner, address spender, uint256 value) internal {\n    require(spender != address(0));\n    require(owner != address(0));\n\n    _allowed[owner][spender] = value;\n    emit Approval(owner, spender, value);\n  }\n\n  /**\n     * @dev Transfer token for a specified addresses.\n     * @param from The address to transfer from.\n     * @param to The address to transfer to.\n     * @param value The amount to be transferred.\n     */\n  function _transfer(address from, address to, uint256 value) internal {\n    require(to != address(0));\n\n    _balances[from] = _balances[from].sub(value);\n    _balances[to] = _balances[to].add(value);\n    emit Transfer(from, to, value);\n  }\n}\n",
  "sourcePath": "/Users/a06837/Downloads/smart-contracts/erc-20-internal/contracts/ERC20Token.sol",
  "compiler": {
    "name": "solc",
    "version": "0.4.24+commit.e67f0147.Emscripten.clang"
  },
  "schemaVersion": "3.4.14",
  "updatedAt": "2023-08-03T10:16:34.925Z",
  "devdoc": {
    "methods": {
      "approve(address,uint256)": {
        "details": "Approve the passed address to spend the specified amount of tokens on behalf of msg.sender. Beware that changing an allowance with this method brings the risk that someone may use both the old and the new allowance by unfortunate transaction ordering. One possible solution to mitigate this race condition is to first reduce the spender's allowance to 0 and set the desired value afterwards: https://github.com/ethereum/EIPs/issues/20#issuecomment-263524729",
        "params": {
          "_spender": "The address which will spend the funds.",
          "_value": "The amount of tokens to be spent."
        }
      },
      "decreaseAllowance(address,uint256)": {
        "details": "Decrease the amount of tokens that an owner allowed to a spender. approve should be called when _allowed[msg.sender][spender] == 0. To decrement allowed value is better to use this function to avoid 2 calls (and wait until the first transaction is mined) From MonolithDAO Token.sol Emits an Approval event.",
        "params": {
          "_spender": "The address which will spend the funds.",
          "_subtractedValue": "The amount of tokens to decrease the allowance by."
        }
      },
      "increaseAllowance(address,uint256)": {
        "details": "Increase the amount of tokens that an owner allowed to a spender. approve should be called when _allowed[msg.sender][spender] == 0. To increment allowed value is better to use this function to avoid 2 calls (and wait until the first transaction is mined) From MonolithDAO Token.sol Emits an Approval event.",
        "params": {
          "_addedValue": "The amount of tokens to increase the allowance by.",
          "_spender": "The address which will spend the funds."
        }
      },
      "transfer(address,uint256)": {
        "details": "Transfer token to a specified address.",
        "params": {
          "_to": "The address to transfer to.",
          "_value": "The amount to be transferred."
        }
      },
      "transferFrom(address,address,uint256)": {
        "details": "Transfer tokens from one address to another. Note that while this function emits an Approval event, this is not required as per the specification, and other compliant implementations may not emit the event.",
        "params": {
          "_from": "address The address which you want to send tokens from",
          "_to": "address The address which you want to transfer to",
          "_value": "uint256 the amount of tokens to be transferred"
        }
      }
    }
  },
  "userdoc": {
    "methods": {}
  }
}